{
  "_format": "hh3-artifact-1",
  "contractName": "Anchor",
  "sourceName": "contracts/Anchor.sol",
  "abi": [
    {
      "anonymous": false,
      "inputs": [
        {
          "indexed": true,
          "internalType": "bytes32",
          "name": "runHash",
          "type": "bytes32"
        },
        {
          "indexed": true,
          "internalType": "address",
          "name": "sender",
          "type": "address"
        },
        {
          "indexed": true,
          "internalType": "uint256",
          "name": "timestamp",
          "type": "uint256"
        }
      ],
      "name": "RunAnchored",
      "type": "event"
    },
    {
      "inputs": [
        {
          "internalType": "bytes32",
          "name": "runHash",
          "type": "bytes32"
        }
      ],
      "name": "anchorRun",
      "outputs": [
        {
          "internalType": "bool",
          "name": "",
          "type": "bool"
        }
      ],
      "stateMutability": "nonpayable",
      "type": "function"
    },
    {
      "inputs": [
        {
          "internalType": "address",
          "name": "",
          "type": "address"
        }
      ],
      "name": "lastAnchored",
      "outputs": [
        {
          "internalType": "bytes32",
          "name": "",
          "type": "bytes32"
        }
      ],
      "stateMutability": "view",
      "type": "function"
    }
  ],
  "bytecode": "0x608060405234801561001057600080fd5b506102cf806100206000396000f3fe608060405234801561001057600080fd5b50600436106100365760003560e01c80630abcaaef1461003b578063ebdf4da51461006b575b600080fd5b610055600480360381019061005091906101a9565b61009b565b60405161006291906101ef565b60405180910390f35b61008560048036038101906100809190610236565b6100b3565b604051610092919061027e565b60405180910390f35b60006020528060005260406000206000915090505481565b6000816000803373ffffffffffffffffffffffffffffffffffffffff1673ffffffffffffffffffffffffffffffffffffffff16815260200190815260200160002081905550423373ffffffffffffffffffffffffffffffffffffffff16837f0d83707b51984f216294ef391b9b82faa91a458a76959b5b018348a2719070d460405160405180910390a460019050919050565b600080fd5b600073ffffffffffffffffffffffffffffffffffffffff82169050919050565b60006101768261014b565b9050919050565b6101868161016b565b811461019157600080fd5b50565b6000813590506101a38161017d565b92915050565b6000602082840312156101bf576101be610146565b5b60006101cd84828501610194565b91505092915050565b6000819050919050565b6101e9816101d6565b82525050565b600060208201905061020460008301846101e0565b92915050565b610213816101d6565b811461021e57600080fd5b50565b6000813590506102308161020a565b92915050565b60006020828403121561024c5761024b610146565b5b600061025a84828501610221565b91505092915050565b60008115159050919050565b61027881610263565b82525050565b6000602082019050610293600083018461026f565b9291505056fea2646970667358221220972ec4e557589399b06a279598e79cb4e611dc64f4665fe9bcd99a92b43e01c864736f6c63430008120033",
  "linkReferences": {},
  "deployedLinkReferences": {},
  "immutableReferences": {},
  "inputSourceName": "project/contracts/Anchor.sol",
  "buildInfoId": "solc-0_8_18-c8eafc70ed6ef8043789e23717619fcf1b8a6c72"
}